{
    "txid": "4ceb86e86f8492274f11aa73863b4854005db2a9ccb9c63141e074d5f32af452",
    "version": 1,
    "type": 0,
    "size": 525,
    "time": 0,
    "locktime": 317000,
    "vin": [
        {
            "txid": "625078713242b67960768d0a65a7a9313d0c0ac0592818647db1847a223a5312",
            "vout": 2,
            "scriptSig": {
                "asm": "3045022100fa2f56ca0bba9d007a5cd960a43cfbbef6cb1eeb732071d5d1a08e4d10aa25ac02200bc5ff63c915f46e1504ab92bbd508c95cde5f0d38f7f78bc8e8f9d468e11f55[ALL] 03c822a49b6149f39b454bc0441fb953e44753071e5e03ba099c397d78a3cf48a1",
                "hex": "483045022100fa2f56ca0bba9d007a5cd960a43cfbbef6cb1eeb732071d5d1a08e4d10aa25ac02200bc5ff63c915f46e1504ab92bbd508c95cde5f0d38f7f78bc8e8f9d468e11f55012103c822a49b6149f39b454bc0441fb953e44753071e5e03ba099c397d78a3cf48a1"
            },
            "sequence": 4294967294
        },
        {
            "txid": "eaedf5e46827156f220783ce285ea3c573737ecbd9f50db8463654c9041845a3",
            "vout": 2,
            "scriptSig": {
                "asm": "304402207c1fd8ee4c2b9d4dfbad4dd23b117c7a395273e26a6e20ca869090daffdce17e022000f25060ea4997f179025cfce192123a88186021e20fed2a80af71ad839b95ed[ALL] 03c822a49b6149f39b454bc0441fb953e44753071e5e03ba099c397d78a3cf48a1",
                "hex": "47304402207c1fd8ee4c2b9d4dfbad4dd23b117c7a395273e26a6e20ca869090daffdce17e022000f25060ea4997f179025cfce192123a88186021e20fed2a80af71ad839b95ed012103c822a49b6149f39b454bc0441fb953e44753071e5e03ba099c397d78a3cf48a1"
            },
            "sequence": 4294967294
        },
        {
            "txid": "f05a00a1880dd2923d4466683a7f093dfecdf524e3ae37ab9658ebc27b4ebb63",
            "vout": 0,
            "scriptSig": {
                "asm": "304502210093d01d7627a953b78b283a4684911c3f8cd5d7df304c6ed9e62ed9923358597902202494c39b8b05c014715f431aa0843fe0955bcc6623ae56022995e44d86fce9ac[ALL] 03c822a49b6149f39b454bc0441fb953e44753071e5e03ba099c397d78a3cf48a1",
                "hex": "48304502210093d01d7627a953b78b283a4684911c3f8cd5d7df304c6ed9e62ed9923358597902202494c39b8b05c014715f431aa0843fe0955bcc6623ae56022995e44d86fce9ac012103c822a49b6149f39b454bc0441fb953e44753071e5e03ba099c397d78a3cf48a1"
            },
            "sequence": 4294967294
        }
    ],
    "vout": [
        {
            "value": 0.01200230,
            "valueSat": 1200230,
            "n": 0,
            "scriptPubKey": {
                "asm": "OP_DUP OP_HASH160 462a8b4af3a75fe0e80cefe5e1cab7a20910e841 OP_EQUALVERIFY OP_CHECKSIG",
                "hex": "76a914462a8b4af3a75fe0e80cefe5e1cab7a20910e84188ac",
                "reqSigs": 1,
                "type": "pubkeyhash",
                "addresses": [
                    "iZD8gdWG9GNzWTVitdi6Wr2sg3fcqx3zyA"
                ]
            }
        },
        {
            "value": 1.00000000,
            "valueSat": 100000000,
            "n": 1,
            "scriptPubKey": {
                "asm": "OP_DUP OP_HASH160 d5ccac54cf9bd2774d4b8fdf068303adc73d49fb OP_EQUALVERIFY OP_CHECKSIG",
                "hex": "76a914d5ccac54cf9bd2774d4b8fdf068303adc73d49fb88ac",
                "reqSigs": 1,
                "type": "pubkeyhash",
                "addresses": [
                    "inJbXzAAnFsnnTSnCmWSr3ydMWRQAZNLTG"
                ]
            }
        }
    ],
    "hex": "01000000000000000312533a227a84b17d64182859c00a0c3d31a9a7650a8d766079b6423271785062020000006b483045022100fa2f56ca0bba9d007a5cd960a43cfbbef6cb1eeb732071d5d1a08e4d10aa25ac02200bc5ff63c915f46e1504ab92bbd508c95cde5f0d38f7f78bc8e8f9d468e11f55012103c822a49b6149f39b454bc0441fb953e44753071e5e03ba099c397d78a3cf48a1feffffffa3451804c9543646b80df5d9cb7e7373c5a35e28ce8307226f152768e4f5edea020000006a47304402207c1fd8ee4c2b9d4dfbad4dd23b117c7a395273e26a6e20ca869090daffdce17e022000f25060ea4997f179025cfce192123a88186021e20fed2a80af71ad839b95ed012103c822a49b6149f39b454bc0441fb953e44753071e5e03ba099c397d78a3cf48a1feffffff63bb4e7bc2eb5896ab37aee324f5cdfe3d097f3a6866443d92d20d88a1005af0000000006b48304502210093d01d7627a953b78b283a4684911c3f8cd5d7df304c6ed9e62ed9923358597902202494c39b8b05c014715f431aa0843fe0955bcc6623ae56022995e44d86fce9ac012103c822a49b6149f39b454bc0441fb953e44753071e5e03ba099c397d78a3cf48a1feffffff0266501200000000001976a914462a8b4af3a75fe0e80cefe5e1cab7a20910e84188ac00e1f505000000001976a914d5ccac54cf9bd2774d4b8fdf068303adc73d49fb88ac48d60400"
}
