{
    "txid": "2b31326dd9cb68d0ac10517966227d0d49f67eae199cc963dee5c7615c367922",
    "version": 1,
    "type": 0,
    "size": 180,
    "time": 0,
    "locktime": 0,
    "vin": [
        {
            "txid": "5897de6bd6027a475eadd57019d4e6872c396d0716c4875a5f1a6fcfdf385c1f",
            "vout": 0,
            "scriptSig": {
                "asm": "",
                "hex": ""
            },
            "sequence": 4294967295
        }
    ],
    "vout": [
        {
            "value": 0.18000000,
            "valueSat": 18000000,
            "n": 0,
            "scriptPubKey": {
                "asm": "OP_DUP OP_HASH160 d5ccac54cf9bd2774d4b8fdf068303adc73d49fb OP_EQUALVERIFY OP_CHECKSIG",
                "hex": "76a914d5ccac54cf9bd2774d4b8fdf068303adc73d49fb88ac",
                "reqSigs": 1,
                "type": "pubkeyhash",
                "addresses": [
                    "inJbXzAAnFsnnTSnCmWSr3ydMWRQAZNLTG"
                ]
            }
        },
        {
            "value": 4.00000000,
            "valueSat": 400000000,
            "n": 1,
            "scriptPubKey": {
                "asm": "OP_RETURN 54686973204f505f52455455524e207472616e73616374696f6e206f7574707574207761732063726561746564206279206d6f646966696564206372656174657261777472616e73616374696f6e2e",
                "hex": "6a4c4f54686973204f505f52455455524e207472616e73616374696f6e206f7574707574207761732063726561746564206279206d6f646966696564206372656174657261777472616e73616374696f6e2e",
                "type": "nulldata"
            }
        }
    ],
    "hex": "0100000000000000011f5c38dfcf6f1a5f5a87c416076d392c87e6d41970d5ad5e477a02d66bde97580000000000ffffffff0280a81201000000001976a914d5ccac54cf9bd2774d4b8fdf068303adc73d49fb88ac0084d71700000000526a4c4f54686973204f505f52455455524e207472616e73616374696f6e206f7574707574207761732063726561746564206279206d6f646966696564206372656174657261777472616e73616374696f6e2e00000000"
}
