{
    "txid": "da2ab966e1c05171a7dcba422aefd3898c9631d8541136f43543a0736ecbf15a",
    "version": 1,
    "type": 0,
    "size": 89,
    "time": 0,
    "locktime": 0,
    "vin": [
        {
            "txid": "5897de6bd6027a475eadd57019d4e6872c396d0716c4875a5f1a6fcfdf385c1f",
            "vout": 0,
            "scriptSig": {
                "asm": "",
                "hex": ""
            },
            "sequence": 4294967293
        }
    ],
    "vout": [
        {
            "value": 0.18000000,
            "valueSat": 18000000,
            "n": 0,
            "scriptPubKey": {
                "asm": "OP_DUP OP_HASH160 d5ccac54cf9bd2774d4b8fdf068303adc73d49fb OP_EQUALVERIFY OP_CHECKSIG",
                "hex": "76a914d5ccac54cf9bd2774d4b8fdf068303adc73d49fb88ac",
                "reqSigs": 1,
                "type": "pubkeyhash",
                "addresses": [
                    "inJbXzAAnFsnnTSnCmWSr3ydMWRQAZNLTG"
                ]
            }
        }
    ],
    "hex": "0100000000000000011f5c38dfcf6f1a5f5a87c416076d392c87e6d41970d5ad5e477a02d66bde97580000000000fdffffff0180a81201000000001976a914d5ccac54cf9bd2774d4b8fdf068303adc73d49fb88ac00000000"
}
