{
    "txid": "bfaf3b2229bf9a6924e8876e27823ca65408b31219b3b7df09db41839cd7c857",
    "version": 1,
    "type": 0,
    "size": 89,
    "time": 0,
    "locktime": 0,
    "vin": [
        {
            "txid": "4d49a71ec9da436f71ec4ee231d04f292a29cd316f598bb7068feccabdc59485",
            "vout": 0,
            "scriptSig": {
                "asm": "",
                "hex": ""
            },
            "sequence": 4294967295
        }
    ],
    "vout": [
        {
            "value": 0.00100000,
            "valueSat": 100000,
            "n": 0,
            "scriptPubKey": {
                "asm": "OP_DUP OP_HASH160 ed9147ebea32fb6479e48e377d235992110ad9bc OP_EQUALVERIFY OP_CHECKSIG",
                "hex": "76a914ed9147ebea32fb6479e48e377d235992110ad9bc88ac",
                "reqSigs": 1,
                "type": "pubkeyhash",
                "addresses": [
                    "ipUGbwpmmtDL1X43JGUJZ4q5EA4SVtRb6e"
                ]
            }
        }
    ],
    "hex": "0100000000000000018594c5bdcaec8f06b78b596f31cd292a294fd031e24eec716f43dac91ea7494d0000000000ffffffff01a0860100000000001976a914ed9147ebea32fb6479e48e377d235992110ad9bc88ac00000000"
}
