{
    "txid": "fc072bbf57210bad126e60bc72a5458a84ef91af657c5ca4723b36635948f34e",
    "version": 1,
    "type": 0,
    "size": 236,
    "time": 0,
    "locktime": 2226515,
    "vin": [
        {
            "txid": "28fc370f8211fd8b21466fcc1654e39412d6ba3bdce8bb6baa608462b4d76ac7",
            "vout": 1,
            "scriptSig": {
                "asm": "30440220173d0598cc996045b79e83ebf5076c4dd5c53bebdfdd327fc8d9e913149ab9f90220637f25abdc20381df10aaef6a73870b57dde063d9875117a35f9ff96afbcf516[ALL] 02f5d581093f1752d4c345c683490d0a98ddd1a3d7a74a05d0ba22e19ed47eff15",
                "hex": "4730440220173d0598cc996045b79e83ebf5076c4dd5c53bebdfdd327fc8d9e913149ab9f90220637f25abdc20381df10aaef6a73870b57dde063d9875117a35f9ff96afbcf516012102f5d581093f1752d4c345c683490d0a98ddd1a3d7a74a05d0ba22e19ed47eff15"
            },
            "sequence": 4294967294
        },
        {
            "txid": "5897de6bd6027a475eadd57019d4e6872c396d0716c4875a5f1a6fcfdf385c1f",
            "vout": 0,
            "scriptSig": {
                "asm": "",
                "hex": ""
            },
            "sequence": 1
        }
    ],
    "vout": [
        {
            "value": 0.99998040,
            "valueSat": 99998040,
            "n": 0,
            "scriptPubKey": {
                "asm": "OP_DUP OP_HASH160 ed9147ebea32fb6479e48e377d235992110ad9bc OP_EQUALVERIFY OP_CHECKSIG",
                "hex": "76a914ed9147ebea32fb6479e48e377d235992110ad9bc88ac",
                "reqSigs": 1,
                "type": "pubkeyhash",
                "addresses": [
                    "ipUGbwpmmtDL1X43JGUJZ4q5EA4SVtRb6e"
                ]
            }
        }
    ],
    "hex": "010000000000000002c76ad7b4628460aa6bbbe8dc3bbad61294e35416cc6f46218bfd11820f37fc28010000006a4730440220173d0598cc996045b79e83ebf5076c4dd5c53bebdfdd327fc8d9e913149ab9f90220637f25abdc20381df10aaef6a73870b57dde063d9875117a35f9ff96afbcf516012102f5d581093f1752d4c345c683490d0a98ddd1a3d7a74a05d0ba22e19ed47eff15feffffff1f5c38dfcf6f1a5f5a87c416076d392c87e6d41970d5ad5e477a02d66bde97580000000000010000000158d9f505000000001976a914ed9147ebea32fb6479e48e377d235992110ad9bc88ac53f92100"
}
